{
  "contractName": "DoubleBlindStudy",
  "abi": [
    {
      "inputs": [
        {
          "internalType": "address",
          "name": "_owner",
          "type": "address"
        },
        {
          "internalType": "contract Token",
          "name": "_pot",
          "type": "address"
        },
        {
          "internalType": "uint256",
          "name": "_startDate",
          "type": "uint256"
        },
        {
          "internalType": "uint256",
          "name": "_duration",
          "type": "uint256"
        }
      ],
      "stateMutability": "nonpayable",
      "type": "constructor"
    },
    {
      "anonymous": false,
      "inputs": [
        {
          "indexed": false,
          "internalType": "uint256",
          "name": "ts",
          "type": "uint256"
        }
      ],
      "name": "StudyActivated",
      "type": "event"
    },
    {
      "anonymous": false,
      "inputs": [
        {
          "indexed": false,
          "internalType": "uint256",
          "name": "ts",
          "type": "uint256"
        },
        {
          "indexed": false,
          "internalType": "string",
          "name": "reason",
          "type": "string"
        }
      ],
      "name": "StudyConcluded",
      "type": "event"
    },
    {
      "inputs": [],
      "name": "active",
      "outputs": [
        {
          "internalType": "bool",
          "name": "",
          "type": "bool"
        }
      ],
      "stateMutability": "view",
      "type": "function",
      "constant": true
    },
    {
      "inputs": [],
      "name": "isOwner",
      "outputs": [
        {
          "internalType": "bool",
          "name": "",
          "type": "bool"
        }
      ],
      "stateMutability": "view",
      "type": "function",
      "constant": true
    },
    {
      "inputs": [],
      "name": "activate",
      "outputs": [],
      "stateMutability": "nonpayable",
      "type": "function"
    },
    {
      "inputs": [
        {
          "internalType": "address payable",
          "name": "_address",
          "type": "address"
        }
      ],
      "name": "isPatientEnrolled",
      "outputs": [
        {
          "internalType": "bytes32",
          "name": "",
          "type": "bytes32"
        }
      ],
      "stateMutability": "view",
      "type": "function",
      "constant": true
    },
    {
      "inputs": [
        {
          "internalType": "address payable",
          "name": "_address",
          "type": "address"
        }
      ],
      "name": "getPatientData",
      "outputs": [
        {
          "internalType": "uint256",
          "name": "",
          "type": "uint256"
        },
        {
          "internalType": "bytes32",
          "name": "",
          "type": "bytes32"
        },
        {
          "internalType": "bytes32",
          "name": "",
          "type": "bytes32"
        },
        {
          "internalType": "string",
          "name": "",
          "type": "string"
        },
        {
          "internalType": "uint256",
          "name": "",
          "type": "uint256"
        }
      ],
      "stateMutability": "view",
      "type": "function",
      "constant": true
    },
    {
      "inputs": [
        {
          "internalType": "bytes32",
          "name": "_mappingId",
          "type": "bytes32"
        },
        {
          "internalType": "string",
          "name": "_data",
          "type": "string"
        }
      ],
      "name": "enroll",
      "outputs": [
        {
          "internalType": "bytes32",
          "name": "",
          "type": "bytes32"
        }
      ],
      "stateMutability": "nonpayable",
      "type": "function"
    },
    {
      "inputs": [
        {
          "internalType": "string",
          "name": "voucher",
          "type": "string"
        }
      ],
      "name": "order",
      "outputs": [],
      "stateMutability": "nonpayable",
      "type": "function"
    },
    {
      "inputs": [],
      "name": "getCurrentOrder",
      "outputs": [
        {
          "internalType": "uint256",
          "name": "",
          "type": "uint256"
        },
        {
          "internalType": "bytes32",
          "name": "",
          "type": "bytes32"
        },
        {
          "internalType": "string",
          "name": "",
          "type": "string"
        },
        {
          "internalType": "uint256",
          "name": "",
          "type": "uint256"
        }
      ],
      "stateMutability": "view",
      "type": "function",
      "constant": true
    },
    {
      "inputs": [
        {
          "internalType": "string",
          "name": "_data",
          "type": "string"
        }
      ],
      "name": "reportTreatmentAdministration",
      "outputs": [],
      "stateMutability": "nonpayable",
      "type": "function"
    },
    {
      "inputs": [
        {
          "internalType": "string",
          "name": "_data",
          "type": "string"
        }
      ],
      "name": "reportStatus",
      "outputs": [],
      "stateMutability": "nonpayable",
      "type": "function"
    },
    {
      "inputs": [
        {
          "internalType": "string",
          "name": "reason",
          "type": "string"
        }
      ],
      "name": "conclude",
      "outputs": [],
      "stateMutability": "nonpayable",
      "type": "function"
    },
    {
      "inputs": [],
      "name": "isConcluded",
      "outputs": [
        {
          "internalType": "bool",
          "name": "",
          "type": "bool"
        }
      ],
      "stateMutability": "view",
      "type": "function",
      "constant": true
    },
    {
      "inputs": [],
      "name": "claimReward",
      "outputs": [],
      "stateMutability": "nonpayable",
      "type": "function"
    }
  ],
  "bytecode": "0x608060405234801561001057600080fd5b506040516117cd3803806117cd8339818101604052608081101561003357600080fd5b8101908080519060200190929190805190602001909291908051906020019092919080519060200190929190505050836000806101000a81548173ffffffffffffffffffffffffffffffffffffffff021916908373ffffffffffffffffffffffffffffffffffffffff16021790555082600160006101000a81548173ffffffffffffffffffffffffffffffffffffffff021916908373ffffffffffffffffffffffffffffffffffffffff1602179055508060048190555081600281905550806002540160038190555060006005819055506000600a819055506000600781905550426002541115600c60006101000a81548160ff02191690831515021790555050505050611687806101466000396000f3fe608060405234801561001057600080fd5b50600436106100cf5760003560e01c8063610ba97e1161008c578063b2af8e9311610066578063b2af8e931461047d578063b88a802f14610538578063bcc3b41014610542578063f87f4a0a1461061b576100cf565b8063610ba97e146103825780636b41a6e91461043d5780638f32d59b1461045d576100cf565b806302fb0c5e146100d457806309c48318146100f45780630f15f4c0146101af578063149cf4b7146101b957806348e8185214610251578063604dfd3f1461032a575b600080fd5b6100dc6106d6565b60405180821515815260200191505060405180910390f35b6101ad6004803603602081101561010a57600080fd5b810190808035906020019064010000000081111561012757600080fd5b82018360208201111561013957600080fd5b8035906020019184600183028401116401000000008311171561015b57600080fd5b91908080601f016020809104026020016040519081016040528093929190818152602001838380828437600081840152601f19601f8201169050808301925050505050505091929192905050506106e9565b005b6101b7610779565b005b6101c1610871565b6040518085815260200184815260200180602001838152602001828103825284818151815260200191508051906020019080838360005b838110156102135780820151818401526020810190506101f8565b50505050905090810190601f1680156102405780820380516001836020036101000a031916815260200191505b509550505050505060405180910390f35b6102936004803603602081101561026757600080fd5b81019080803573ffffffffffffffffffffffffffffffffffffffff169060200190929190505050610a26565b6040518086815260200185815260200184815260200180602001838152602001828103825284818151815260200191508051906020019080838360005b838110156102eb5780820151818401526020810190506102d0565b50505050905090810190601f1680156103185780820380516001836020036101000a031916815260200191505b50965050505050505060405180910390f35b61036c6004803603602081101561034057600080fd5b81019080803573ffffffffffffffffffffffffffffffffffffffff169060200190929190505050610b70565b6040518082815260200191505060405180910390f35b61043b6004803603602081101561039857600080fd5b81019080803590602001906401000000008111156103b557600080fd5b8201836020820111156103c757600080fd5b803590602001918460018302840111640100000000831117156103e957600080fd5b91908080601f016020809104026020016040519081016040528093929190818152602001838380828437600081840152601f19601f820116905080830192505050505050509192919290505050610b9d565b005b610445610d85565b60405180821515815260200191505060405180910390f35b610465610d9d565b60405180821515815260200191505060405180910390f35b6105366004803603602081101561049357600080fd5b81019080803590602001906401000000008111156104b057600080fd5b8201836020820111156104c257600080fd5b803590602001918460018302840111640100000000831117156104e457600080fd5b91908080601f016020809104026020016040519081016040528093929190818152602001838380828437600081840152601f19601f820116905080830192505050505050509192919290505050610df4565b005b610540610e84565b005b6106056004803603604081101561055857600080fd5b81019080803590602001909291908035906020019064010000000081111561057f57600080fd5b82018360208201111561059157600080fd5b803590602001918460018302840111640100000000831117156105b357600080fd5b91908080601f016020809104026020016040519081016040528093929190818152602001838380828437600081840152601f19601f820116905080830192505050505050509192919290505050611107565b6040518082815260200191505060405180910390f35b6106d46004803603602081101561063157600080fd5b810190808035906020019064010000000081111561064e57600080fd5b82018360208201111561066057600080fd5b8035906020019184600183028401116401000000008311171561068257600080fd5b91908080601f016020809104026020016040519081016040528093929190818152602001838380828437600081840152601f19601f820116905080830192505050505050509192919290505050611267565b005b600c60009054906101000a900460ff1681565b600c60009054906101000a900460ff1661076b576040517f08c379a000000000000000000000000000000000000000000000000000000000815260040180806020018281038252601a8152602001807f4572726f723a207374756479206973206e6f742061637469766500000000000081525060200191505060405180910390fd5b6107766001826113a2565b50565b60008054906101000a900473ffffffffffffffffffffffffffffffffffffffff1673ffffffffffffffffffffffffffffffffffffffff163373ffffffffffffffffffffffffffffffffffffffff161461081d576040517f08c379a000000000000000000000000000000000000000000000000000000000815260040180806020018281038252602c8152602001806115d2602c913960400191505060405180910390fd5b6001600c60006101000a81548160ff0219169083151502179055507fc949c5df8494fc2cf03ff4413330cf91e9e23c5e5ef897bd14f597a6afb60229426040518082815260200191505060405180910390a1565b60008060606000600c60009054906101000a900460ff166108fa576040517f08c379a000000000000000000000000000000000000000000000000000000000815260040180806020018281038252601a8152602001807f4572726f723a207374756479206973206e6f742061637469766500000000000081525060200191505060405180910390fd5b6000610905336114b5565b90506000600960008381526020019081526020016000205490506000600860008381526020019081526020016000206040518060800160405290816000820154815260200160018201548152602001600282018054600181600116156101000203166002900480601f0160208091040260200160405190810160405280929190818152602001828054600181600116156101000203166002900480156109ec5780601f106109c1576101008083540402835291602001916109ec565b820191906000526020600020905b8154815290600101906020018083116109cf57829003601f168201915b5050505050815260200160038201548152505090508060000151816020015182604001518360600151965096509650965050505090919293565b60008060006060600080610a39876114b5565b90506000600660008381526020019081526020016000206040518060c0016040529081600082015481526020016001820154815260200160028201548152602001600382018054600181600116156101000203166002900480601f016020809104026020016040519081016040528092919081815260200182805460018160011615610100020316600290048015610b125780601f10610ae757610100808354040283529160200191610b12565b820191906000526020600020905b815481529060010190602001808311610af557829003601f168201915b50505050508152602001600482015481526020016005820160009054906101000a900460ff16151515158152505090508060000151816020015182604001518360600151846080015196509650965096509650505091939590929450565b600080610b7c836114b5565b90506006600082815260200190815260200160002060010154915050919050565b60008054906101000a900473ffffffffffffffffffffffffffffffffffffffff1673ffffffffffffffffffffffffffffffffffffffff163373ffffffffffffffffffffffffffffffffffffffff1614610c41576040517f08c379a000000000000000000000000000000000000000000000000000000000815260040180806020018281038252602c8152602001806115d2602c913960400191505060405180910390fd5b600c60009054906101000a900460ff16610cc3576040517f08c379a000000000000000000000000000000000000000000000000000000000815260040180806020018281038252601a8152602001807f4572726f723a207374756479206973206e6f742061637469766500000000000081525060200191505060405180910390fd5b6000600c60006101000a81548160ff0219169083151502179055507f32f56bbcab3aec97b6693120c71d60d393198c917daaaa7b8806a44437b4783342826040518083815260200180602001828103825283818151815260200191508051906020019080838360005b83811015610d47578082015181840152602081019050610d2c565b50505050905090810190601f168015610d745780820380516001836020036101000a031916815260200191505b50935050505060405180910390a150565b6000600c60009054906101000a900460ff1615905090565b60008060009054906101000a900473ffffffffffffffffffffffffffffffffffffffff1673ffffffffffffffffffffffffffffffffffffffff163373ffffffffffffffffffffffffffffffffffffffff1614905090565b600c60009054906101000a900460ff16610e76576040517f08c379a000000000000000000000000000000000000000000000000000000000815260040180806020018281038252601a8152602001807f4572726f723a207374756479206973206e6f742061637469766500000000000081525060200191505060405180910390fd5b610e816000826113a2565b50565b600c60009054906101000a900460ff1615610eea576040517f08c379a000000000000000000000000000000000000000000000000000000000815260040180806020018281038252602781526020018061162b6027913960400191505060405180910390fd5b6000610ef5336114b5565b90506000801b60066000838152602001908152602001600020600101541415610f69576040517f08c379a000000000000000000000000000000000000000000000000000000000815260040180806020018281038252602d8152602001806115fe602d913960400191505060405180910390fd5b6006600082815260200190815260200160002060050160009054906101000a900460ff1615610fe3576040517f08c379a00000000000000000000000000000000000000000000000000000000081526004018080602001828103825260288152602001806115aa6028913960400191505060405180910390fd5b60006064905060005b600a5481101561102857600b60008281526020019081526020016000206002015483141561101b57600a820191505b8080600101915050610fec565b50600160009054906101000a900473ffffffffffffffffffffffffffffffffffffffff1673ffffffffffffffffffffffffffffffffffffffff166340c10f1933836040518363ffffffff1660e01b8152600401808373ffffffffffffffffffffffffffffffffffffffff16815260200182815260200192505050600060405180830381600087803b1580156110bc57600080fd5b505af11580156110d0573d6000803e3d6000fd5b5050505060016006600084815260200190815260200160002060050160006101000a81548160ff0219169083151502179055505050565b6000600c60009054906101000a900460ff1661118b576040517f08c379a000000000000000000000000000000000000000000000000000000000815260040180806020018281038252601a8152602001807f4572726f723a207374756479206973206e6f742061637469766500000000000081525060200191505060405180910390fd5b60056000815480929190600101919050555060006111a8336114b5565b905060004290506040518060c0016040528060055481526020018381526020018681526020018581526020018281526020016000151581525060066000848152602001908152602001600020600082015181600001556020820151816001015560408201518160020155606082015181600301908051906020019061122e9291906114fe565b506080820151816004015560a08201518160050160006101000a81548160ff021916908315150217905550905050819250505092915050565b600c60009054906101000a900460ff166112e9576040517f08c379a000000000000000000000000000000000000000000000000000000000815260040180806020018281038252601a8152602001807f4572726f723a207374756479206973206e6f742061637469766500000000000081525060200191505060405180910390fd5b6007600081548092919060010191905055506000611306336114b5565b905060004290506040518060800160405280600754815260200183815260200184815260200182815250600860006007548152602001908152602001600020600082015181600001556020820151816001015560408201518160020190805190602001906113759291906114fe565b50606082015181600301559050506007546009600084815260200190815260200160002081905550505050565b600a6000815480929190600101919050555060006113bf336114b5565b905060004290506040518060a00160405280600a5481526020018560018111156113e557fe5b815260200183815260200184815260200182815250600b6000600a5481526020019081526020016000206000820151816000015560208201518160010160006101000a81548160ff0219169083600181111561143d57fe5b02179055506040820151816002015560608201518160030190805190602001906114689291906114fe565b506080820151816004015590505083600181111561148257fe5b6000600181111561148f57fe5b14156114af57600060096000848152602001908152602001600020819055505b50505050565b600081604051602001808273ffffffffffffffffffffffffffffffffffffffff1660601b8152601401915050604051602081830303815290604052805190602001209050919050565b828054600181600116156101000203166002900490600052602060002090601f016020900481019282611534576000855561157b565b82601f1061154d57805160ff191683800117855561157b565b8280016001018555821561157b579182015b8281111561157a57825182559160200191906001019061155f565b5b509050611588919061158c565b5090565b5b808211156115a557600081600090555060010161158d565b509056fe4572726f723a2070617469656e742068617320616c7265616479206265656e2072657761726465644572726f723a206f6e6c7920746865206f776e65722063616e20636f6e636c756465207468652073747564794572726f723a2070617469656e7420686173206e6f74206265656e2070617274206f66207468652073747564794572726f723a20737475647920686173206e6f7420796574206265656e20636f6e636c75646564a2646970667358221220c08e017054d289503fa092351430d33be17e6834a690d85c9b2eae7ebbcd23ae64736f6c63430007060033",
  "immutableReferences": {},
  "source": "// SPDX-License-Identifier: MIT\r\npragma solidity ^0.7.4;\r\n\r\nimport './Token.sol';\r\n\r\ncontract DoubleBlindStudy {\r\n    address private owner;\r\n    Token private pot;\r\n    uint256 private startDate;\r\n    uint256 private endDate;\r\n    uint256 private duration;\r\n\r\n    uint256 private patientCount;\r\n    mapping(bytes32 => Patient) private patients;\r\n\r\n    uint256 private orderCount;\r\n    mapping(uint256 => Order) private orders;\r\n    mapping(bytes32 => uint256) private patientOrder;\r\n\r\n    uint256 private reportCount;\r\n    mapping(uint256 => Report) private reports;\r\n\r\n    bool public active;\r\n\r\n    event StudyActivated(uint256 ts);\r\n\r\n    event StudyConcluded(uint256 ts, string reason);\r\n\r\n    modifier requireOwner {\r\n        require(\r\n            msg.sender == owner,\r\n            'Error: only the owner can conclude the study'\r\n        );\r\n        _;\r\n    }\r\n\r\n    modifier requireActive {\r\n        require(active, 'Error: study is not active');\r\n        _;\r\n    }\r\n\r\n    modifier requireConcluded {\r\n        require(\r\n            !active /*&& (endDate <= block.timestamp)*/,\r\n            'Error: study has not yet been concluded'\r\n        );\r\n        _;\r\n    }\r\n\r\n    enum ReportType {TreatmentAdministration, Status}\r\n\r\n    struct Patient {\r\n        uint256 _id;\r\n        bytes32 _patientId;\r\n        bytes32 _mappingId;\r\n        string _data;\r\n        uint256 _enrolledOn;\r\n        bool _hasBeenRewarded;\r\n    }\r\n\r\n    struct Order {\r\n        uint256 _id;\r\n        bytes32 _patientId;\r\n        string _voucher;\r\n        uint256 _orderedOn;\r\n    }\r\n\r\n    struct Report {\r\n        uint256 _id;\r\n        ReportType _reportType;\r\n        bytes32 _patientId;\r\n        string _data;\r\n        uint256 _reportedOn;\r\n    }\r\n\r\n    /*\r\n      the deployer of the contract is the study owner\r\n      \r\n      they must provide address of a wallet with sufficient \r\n      funds to finance expenses related to the study, called \r\n      the pot\r\n      \r\n      for miscellaneous transactions the patients are\r\n      expected to pay by themselves but this is mitigated\r\n      by the pot being redistributed at the end of the study \r\n      to all participants\r\n      \r\n      startDate and duration are specified in seconds\r\n    */\r\n    constructor(\r\n        address _owner,\r\n        Token _pot,\r\n        uint256 _startDate,\r\n        uint256 _duration\r\n    ) {\r\n        owner = _owner;\r\n        pot = _pot;\r\n        duration = _duration;\r\n        startDate = _startDate;\r\n        endDate = startDate + _duration;\r\n\r\n        patientCount = 0;\r\n        reportCount = 0;\r\n        orderCount = 0;\r\n\r\n        active = (startDate <= block.timestamp);\r\n    }\r\n\r\n    // helpers\r\n\r\n    function _getHash(address payable _address) private view returns (bytes32) {\r\n        return keccak256(abi.encodePacked(_address));\r\n    }\r\n\r\n    // business logic\r\n\r\n    function isOwner() public view returns (bool) {\r\n        return msg.sender == owner;\r\n    }\r\n\r\n    function activate() public requireOwner {\r\n        active = true;\r\n        emit StudyActivated(block.timestamp);\r\n    }\r\n\r\n    /*\r\n      Returns whether the specified patient is enrolled\r\n    */\r\n    function isPatientEnrolled(address payable _address)\r\n        public\r\n        view\r\n        returns (bytes32)\r\n    {\r\n        bytes32 patientId = _getHash(_address);\r\n        return patients[patientId]._patientId;\r\n    }\r\n\r\n    /*\r\n      Returns patient data\r\n    */\r\n    function getPatientData(address payable _address)\r\n        public\r\n        view\r\n        returns (\r\n            uint256,\r\n            bytes32,\r\n            bytes32,\r\n            string memory,\r\n            uint256\r\n        )\r\n    {\r\n        bytes32 patientId = _getHash(_address);\r\n        Patient memory patient = patients[patientId];\r\n        return (\r\n            patient._id,\r\n            patient._patientId,\r\n            patient._mappingId,\r\n            patient._data,\r\n            patient._enrolledOn\r\n        );\r\n    }\r\n\r\n    /*\r\n      add a patient to the study\r\n    */\r\n    function enroll(bytes32 _mappingId, string memory _data)\r\n        public\r\n        requireActive\r\n        returns (bytes32)\r\n    {\r\n        patientCount++;\r\n        bytes32 patientId = _getHash(msg.sender);\r\n        uint256 ts = block.timestamp;\r\n        patients[patientId] = Patient(\r\n            patientCount,\r\n            patientId,\r\n            _mappingId,\r\n            _data,\r\n            ts, \r\n            false\r\n        );\r\n        return patientId;\r\n    }\r\n\r\n    /*\r\n      order a treatment kit -- real or placebo --\r\n      based on the nature of the patient. pay out of the pot?\r\n    */\r\n    function order(string memory voucher) public requireActive {\r\n        orderCount++;\r\n        bytes32 patientId = _getHash(msg.sender);\r\n        uint256 ts = block.timestamp;\r\n        orders[orderCount] = Order(orderCount, patientId, voucher, ts);\r\n        patientOrder[patientId] = orderCount;\r\n    }\r\n\r\n    function getCurrentOrder()\r\n        public\r\n        view\r\n        requireActive\r\n        returns (\r\n            uint256,\r\n            bytes32,\r\n            string memory,\r\n            uint256\r\n        )\r\n    {\r\n        bytes32 patientId = _getHash(msg.sender);\r\n        uint256 orderId = patientOrder[patientId];\r\n        Order memory _order = orders[orderId];\r\n        return (\r\n            _order._id,\r\n            _order._patientId,\r\n            _order._voucher,\r\n            _order._orderedOn\r\n        );\r\n    }\r\n\r\n    /*\r\n      Add a report of specified type and with specified data\r\n    */\r\n    function _addReport(ReportType _type, string memory _data) private {\r\n        reportCount++;\r\n        bytes32 patientId = _getHash(msg.sender);\r\n        uint256 ts = block.timestamp;\r\n        reports[reportCount] = Report(reportCount, _type, patientId, _data, ts);\r\n        if (ReportType.TreatmentAdministration == _type) {\r\n            patientOrder[patientId] = 0;\r\n        }\r\n    }\r\n\r\n    /*\r\n      records administration of a treatment kit to a patient\r\n    */\r\n    function reportTreatmentAdministration(string memory _data)\r\n        public\r\n        requireActive\r\n    {\r\n        _addReport(ReportType.TreatmentAdministration, _data);\r\n    }\r\n\r\n    /*\r\n      records status of a patient following treatment administration\r\n      part of continuous self-assesment\r\n    */\r\n    function reportStatus(string memory _data) public requireActive {\r\n        _addReport(ReportType.Status, _data);\r\n    }\r\n\r\n    /*\r\n      fired at the end of the study (on or after endDate)\r\n    */\r\n    function conclude(string memory reason) public requireOwner requireActive {\r\n        active = false;\r\n        emit StudyConcluded(block.timestamp, reason);\r\n    }\r\n\r\n    function isConcluded() public view returns (bool) {\r\n        return !active; //&& (endDate <= block.timestamp);\r\n    }\r\n\r\n    function claimReward() public requireConcluded {\r\n        bytes32 patientId = _getHash(msg.sender);\r\n        \r\n        require(patients[patientId]._patientId != 0, 'Error: patient has not been part of the study');\r\n        require(!patients[patientId]._hasBeenRewarded, 'Error: patient has already been rewarded');\r\n        \r\n        uint256 score = 100;\r\n        for (uint256 i = 0; i < reportCount; i++) {\r\n            if (patientId == reports[i]._patientId) {\r\n                score += 10;\r\n            }\r\n        }\r\n        pot.mint(msg.sender, score);\r\n        patients[patientId]._hasBeenRewarded = true;\r\n    }\r\n}\r\n",
  "sourcePath": "D:/Sources/erko-eth-project/src/contracts/DoubleBlindStudy.sol",
  "compiler": {
    "name": "solc",
    "version": "0.7.6+commit.7338295f.Emscripten.clang"
  },
  "schemaVersion": "3.3.4",
  "updatedAt": "2021-04-16T16:55:42.949Z",
  "networkType": "ethereum",
  "devdoc": {
    "kind": "dev",
    "methods": {},
    "version": 1
  },
  "userdoc": {
    "kind": "user",
    "methods": {},
    "version": 1
  }
}