{
  "contractName": "DoubleBlindStudy",
  "abi": [
    {
      "inputs": [],
      "stateMutability": "nonpayable",
      "type": "constructor"
    },
    {
      "inputs": [],
      "name": "active",
      "outputs": [
        {
          "internalType": "bool",
          "name": "",
          "type": "bool"
        }
      ],
      "stateMutability": "view",
      "type": "function",
      "constant": true
    },
    {
      "inputs": [
        {
          "internalType": "address payable",
          "name": "_address",
          "type": "address"
        }
      ],
      "name": "isPatientEnrolled",
      "outputs": [
        {
          "internalType": "bool",
          "name": "",
          "type": "bool"
        }
      ],
      "stateMutability": "view",
      "type": "function",
      "constant": true
    },
    {
      "inputs": [
        {
          "internalType": "address payable",
          "name": "_address",
          "type": "address"
        },
        {
          "internalType": "string",
          "name": "_data",
          "type": "string"
        }
      ],
      "name": "enroll",
      "outputs": [],
      "stateMutability": "nonpayable",
      "type": "function"
    },
    {
      "inputs": [],
      "name": "order",
      "outputs": [],
      "stateMutability": "nonpayable",
      "type": "function"
    },
    {
      "inputs": [],
      "name": "reportTreatmentAdministration",
      "outputs": [],
      "stateMutability": "nonpayable",
      "type": "function"
    },
    {
      "inputs": [],
      "name": "reportStatus",
      "outputs": [],
      "stateMutability": "nonpayable",
      "type": "function"
    }
  ],
  "bytecode": "0x608060405234801561001057600080fd5b50336000806101000a81548173ffffffffffffffffffffffffffffffffffffffff021916908373ffffffffffffffffffffffffffffffffffffffff1602179055506201518060038190555042600181905550600354600154016002819055506000600481905550600060068190555060006008819055506001600a60006101000a81548160ff0219169083151502179055506105b7806100b16000396000f3fe608060405234801561001057600080fd5b50600436106100625760003560e01c806302fb0c5e146100675780634637050114610087578063604dfd3f14610091578063bf15071d146100eb578063cf783348146100f5578063d96a4592146100ff575b600080fd5b61006f6101da565b60405180821515815260200191505060405180910390f35b61008f6101ed565b005b6100d3600480360360208110156100a757600080fd5b81019080803573ffffffffffffffffffffffffffffffffffffffff169060200190929190505050610208565b60405180821515815260200191505060405180910390f35b6100f36102c3565b005b6100fd6102de565b005b6101d86004803603604081101561011557600080fd5b81019080803573ffffffffffffffffffffffffffffffffffffffff1690602001909291908035906020019064010000000081111561015257600080fd5b82018360208201111561016457600080fd5b8035906020019184600183028401116401000000008311171561018657600080fd5b91908080601f016020809104026020016040519081016040528093929190818152602001838380828437600081840152601f19601f8201169050808301925050505050505091929192905050506102f9565b005b600a60009054906101000a900460ff1681565b600a60009054906101000a900460ff1661020657600080fd5b565b6000600a60009054906101000a900460ff1661022357600080fd5b6000600190505b6001600454018110156102b8576005600082815260200190815260200160002060010160009054906101000a900473ffffffffffffffffffffffffffffffffffffffff1673ffffffffffffffffffffffffffffffffffffffff168373ffffffffffffffffffffffffffffffffffffffff1614156102ab5760019150506102be565b808060010191505061022a565b50600090505b919050565b600a60009054906101000a900460ff166102dc57600080fd5b565b600a60009054906101000a900460ff166102f757600080fd5b565b600a60009054906101000a900460ff1661031257600080fd5b6004600081548092919060010191905055506040518060a0016040528060045481526020018373ffffffffffffffffffffffffffffffffffffffff16815260200161035b610432565b600181111561036657fe5b8152602001828152602001428152506005600060045481526020019081526020016000206000820151816000015560208201518160010160006101000a81548173ffffffffffffffffffffffffffffffffffffffff021916908373ffffffffffffffffffffffffffffffffffffffff16021790555060408201518160010160146101000a81548160ff021916908360018111156103ff57fe5b021790555060608201518160020190805190602001906104209291906104d6565b50608082015181600301559050505050565b60008060085460065460045401019050600061044d82610472565b905060006002828161045b57fe5b061461046857600061046b565b60015b9250505090565b600044423384604051602001808581526020018481526020018373ffffffffffffffffffffffffffffffffffffffff1660601b81526014018281526020019450505050506040516020818303038152906040528051906020012060001c9050919050565b828054600181600116156101000203166002900490600052602060002090601f01602090048101928261050c5760008555610553565b82601f1061052557805160ff1916838001178555610553565b82800160010185558215610553579182015b82811115610552578251825591602001919060010190610537565b5b5090506105609190610564565b5090565b5b8082111561057d576000816000905550600101610565565b509056fea264697066735822122072139a2a43eb108f29185accbf5086032d34eb08f045cff55ee60f87dc99deba64736f6c63430007060033",
  "immutableReferences": {},
  "source": "pragma solidity ^0.7.4;\r\n\r\ncontract DoubleBlindStudy {\r\n    \r\n    address payable private pot;\r\n    uint256 private startDate;\r\n    uint256 private endDate;\r\n    uint256 private duration;\r\n    \r\n    uint256 private patientCount;\r\n    mapping (uint256 => Patient) private patients;\r\n    \r\n    uint256 private treatmentAdministrationReportCount;\r\n    mapping (uint256 => TreatmentAdministrationReport) private treatmentAdministrationReports;\r\n    \r\n    uint256 private statusReportCount;\r\n    mapping (uint256 => StatusReport) private statusReports;\r\n    \r\n    bool public active;\r\n    \r\n    modifier requireActive {\r\n        require(active);\r\n        _;\r\n    }\r\n    \r\n    enum Group {\r\n        Treatment,\r\n        Control\r\n    }\r\n    \r\n    struct Patient {\r\n        uint256 _id;\r\n        address payable _address;\r\n        Group _group;\r\n        string _data;\r\n        uint256 _registeredOn;\r\n    }\r\n    \r\n    struct TreatmentAdministrationReport {\r\n        uint256 _patientId;\r\n        string _data;\r\n        uint256 _administeredOn;\r\n    }    \r\n    \r\n    struct StatusReport {\r\n        uint256 _patientId;\r\n        string _data;\r\n        uint256 _reportedOn;\r\n    }\r\n    \r\n    //\r\n    // the deployer of the contract is the study monitor\r\n    // \r\n    // they should provide address of a wallet with sufficient \r\n    // funds to finance expenses related to the study, called \r\n    // the pot\r\n    // \r\n    // for miscellaneous transactions the patients are\r\n    // expected to pay by themselves but this is mitigated\r\n    // by the pot being redistributed at the end of the study \r\n    // to all participants\r\n    //\r\n    // startDate and duration are specified in seconds\r\n    //\r\n    /*constructor (address payable _pot, uint256 _startDate, uint256 _duration) {\r\n        pot = _pot;\r\n        duration = _duration;\r\n        startDate = _startDate;\r\n        endDate = startDate + _duration;\r\n        \r\n        patientCount = 0;\r\n        treatmentAdministrationReportCount = 0;\r\n        statusReportCount = 0;\r\n        \r\n        // TODO:: deal with the logic here\r\n        active = true;\r\n    }*/\r\n\r\n    //\r\n    // TODO:: remove after debugging\r\n    //\r\n    constructor () {\r\n        pot = msg.sender;\r\n        duration = 60 * 60 * 24;\r\n        startDate = block.timestamp;\r\n        endDate = startDate + duration;\r\n        \r\n        patientCount = 0;\r\n        treatmentAdministrationReportCount = 0;\r\n        statusReportCount = 0;\r\n        \r\n        active = true;\r\n    }\r\n    \r\n    // helpers\r\n    \r\n    //\r\n    // returns a pseudorandom number\r\n    //\r\n    function _random(uint seed) private view returns (uint) {\r\n        return uint(keccak256(abi.encodePacked(block.difficulty, block.timestamp, msg.sender, seed)));\r\n    } \r\n    \r\n    //\r\n    // The first transaction at or after \r\n    // the end date will deactivate the contract and\r\n    // conclude the study. Ran at the end of all public \r\n    // calls to the contract\r\n    //\r\n    function _checkIfEnded () private {\r\n        if (block.timestamp > endDate) {\r\n            active = false;\r\n            _concludeStudy();\r\n        }\r\n    }\r\n    \r\n    // business logic\r\n    \r\n    function isPatientEnrolled (address payable _address) public requireActive view returns (bool) {\r\n        for (uint i = 1; i < patientCount + 1; i++) {\r\n            if (_address == patients[i]._address) {\r\n                return true;\r\n            }\r\n        }\r\n        return false;\r\n    }\r\n    \r\n    //\r\n    // add a patient to the study\r\n    //\r\n    function enroll (address payable _address, string memory _data) public requireActive {\r\n        patientCount++;\r\n        patients[patientCount] = Patient(patientCount, _address, _assignToGroup(), _data, block.timestamp);\r\n    }\r\n    \r\n    // \r\n    // assign patient to one of two groups - treatment or control\r\n    //\r\n    function _assignToGroup () private view returns (Group) {\r\n        uint seed = patientCount + treatmentAdministrationReportCount + statusReportCount;\r\n        uint randInt = _random(seed);\r\n        return randInt % 2 == 0 ? Group.Control : Group.Treatment;\r\n    }\r\n    \r\n    //\r\n    // obscure the data in such a way that no one can see which \r\n    // patient pertains to which group\r\n    //\r\n    // TODO:: find a solution for this. How can we blind the \r\n    // patient?\r\n    //\r\n    function _blind () private {}\r\n    \r\n    //\r\n    // order a treatment kit -- real or placebo -- \r\n    // based on the nature of the patient. pay out of the pot \r\n    //\r\n    function order () public requireActive {}\r\n    \r\n    //\r\n    // records administration of a treatment kit to a patient\r\n    //\r\n    function reportTreatmentAdministration () public requireActive {}\r\n    \r\n    //\r\n    // records status of a patient following treatment administration\r\n    // part of continuous self-assesment\r\n    //\r\n    function reportStatus () public requireActive {}\r\n    \r\n    // \r\n    // fired at the end of the study (on or after endDate)\r\n    // \r\n    function _concludeStudy () private {}\r\n    \r\n    // \r\n    // reverse the blinding procedure\r\n    //\r\n    function _unblind () private {}\r\n}\r\n",
  "sourcePath": "D:/Sources/erko-eth-project/src/contracts/DoubleBlindStudy.sol",
  "compiler": {
    "name": "solc",
    "version": "0.7.6+commit.7338295f.Emscripten.clang"
  },
  "schemaVersion": "3.3.4",
  "updatedAt": "2021-03-14T15:42:36.106Z",
  "networkType": "ethereum",
  "devdoc": {
    "kind": "dev",
    "methods": {},
    "version": 1
  },
  "userdoc": {
    "kind": "user",
    "methods": {},
    "version": 1
  }
}