{
  "contractName": "DoubleBlindStudy",
  "abi": [
    {
      "inputs": [],
      "stateMutability": "nonpayable",
      "type": "constructor"
    },
    {
      "inputs": [],
      "name": "active",
      "outputs": [
        {
          "internalType": "bool",
          "name": "",
          "type": "bool"
        }
      ],
      "stateMutability": "view",
      "type": "function",
      "constant": true
    },
    {
      "inputs": [
        {
          "internalType": "address payable",
          "name": "_address",
          "type": "address"
        },
        {
          "internalType": "string",
          "name": "_data",
          "type": "string"
        }
      ],
      "name": "registerPatient",
      "outputs": [],
      "stateMutability": "nonpayable",
      "type": "function"
    },
    {
      "inputs": [],
      "name": "orderTreatmentKit",
      "outputs": [],
      "stateMutability": "nonpayable",
      "type": "function"
    },
    {
      "inputs": [],
      "name": "administerTreatment",
      "outputs": [],
      "stateMutability": "nonpayable",
      "type": "function"
    },
    {
      "inputs": [],
      "name": "reportStatus",
      "outputs": [],
      "stateMutability": "nonpayable",
      "type": "function"
    }
  ],
  "bytecode": "0x608060405234801561001057600080fd5b50336000806101000a81548173ffffffffffffffffffffffffffffffffffffffff021916908373ffffffffffffffffffffffffffffffffffffffff1602179055506201518060038190555042600181905550600354600154016002819055506000600481905550600060068190555060006008819055506001600a60006101000a81548160ff021916908315150217905550610497806100b16000396000f3fe608060405234801561001057600080fd5b50600436106100575760003560e01c806302fb0c5e1461005c57806345a5e8931461007c57806346370501146100865780636eacaa03146100905780638048c2f01461009a575b600080fd5b610064610175565b60405180821515815260200191505060405180910390f35b610084610188565b005b61008e6101a3565b005b6100986101be565b005b610173600480360360408110156100b057600080fd5b81019080803573ffffffffffffffffffffffffffffffffffffffff169060200190929190803590602001906401000000008111156100ed57600080fd5b8201836020820111156100ff57600080fd5b8035906020019184600183028401116401000000008311171561012157600080fd5b91908080601f016020809104026020016040519081016040528093929190818152602001838380828437600081840152601f19601f8201169050808301925050505050505091929192905050506101d9565b005b600a60009054906101000a900460ff1681565b600a60009054906101000a900460ff166101a157600080fd5b565b600a60009054906101000a900460ff166101bc57600080fd5b565b600a60009054906101000a900460ff166101d757600080fd5b565b600a60009054906101000a900460ff166101f257600080fd5b6004600081548092919060010191905055506040518060a0016040528060045481526020018373ffffffffffffffffffffffffffffffffffffffff16815260200161023b610312565b600181111561024657fe5b8152602001828152602001428152506005600060045481526020019081526020016000206000820151816000015560208201518160010160006101000a81548173ffffffffffffffffffffffffffffffffffffffff021916908373ffffffffffffffffffffffffffffffffffffffff16021790555060408201518160010160146101000a81548160ff021916908360018111156102df57fe5b021790555060608201518160020190805190602001906103009291906103b6565b50608082015181600301559050505050565b60008060085460065460045401019050600061032d82610352565b905060006002828161033b57fe5b061461034857600061034b565b60015b9250505090565b600044423384604051602001808581526020018481526020018373ffffffffffffffffffffffffffffffffffffffff1660601b81526014018281526020019450505050506040516020818303038152906040528051906020012060001c9050919050565b828054600181600116156101000203166002900490600052602060002090601f0160209004810192826103ec5760008555610433565b82601f1061040557805160ff1916838001178555610433565b82800160010185558215610433579182015b82811115610432578251825591602001919060010190610417565b5b5090506104409190610444565b5090565b5b8082111561045d576000816000905550600101610445565b509056fea264697066735822122080ab03519d0c9f172a4fd2ea840b63bcbe50cbc163c32a748f8c3949071e4a0c64736f6c63430007060033",
  "immutableReferences": {},
  "source": "pragma solidity ^0.7.4;\r\n\r\ncontract DoubleBlindStudy {\r\n    \r\n    address payable private pot;\r\n    uint256 private startDate;\r\n    uint256 private endDate;\r\n    uint256 private duration;\r\n    \r\n    uint256 private patientCount;\r\n    mapping (uint256 => Patient) private patients;\r\n    \r\n    uint256 private treatmentAdministrationReportCount;\r\n    mapping (uint256 => TreatmentAdministrationReport) private treatmentAdministrationReports;\r\n    \r\n    uint256 private statusReportCount;\r\n    mapping (uint256 => StatusReport) private statusReports;\r\n    \r\n    bool public active;\r\n    \r\n    modifier requireActive {\r\n        require(active);\r\n        _;\r\n    }\r\n    \r\n    enum Group {\r\n        Treatment,\r\n        Control\r\n    }\r\n    \r\n    struct Patient {\r\n        uint256 _id;\r\n        address payable _address;\r\n        Group _group;\r\n        string _data;\r\n        uint256 _registeredOn;\r\n    }\r\n    \r\n    struct TreatmentAdministrationReport {\r\n        uint256 _patientId;\r\n        string _data;\r\n        uint256 _administeredOn;\r\n    }    \r\n    \r\n    struct StatusReport {\r\n        uint256 _patientId;\r\n        string _data;\r\n        uint256 _reportedOn;\r\n    }\r\n    \r\n    //\r\n    // the deployer of the contract is the study monitor\r\n    // \r\n    // they should provide address of a wallet with sufficient \r\n    // funds to finance expenses related to the study, called \r\n    // the pot\r\n    // \r\n    // for miscellaneous transactions the patients are\r\n    // expected to pay by themselves but this is mitigated\r\n    // by the pot being redistributed at the end of the study \r\n    // to all participants\r\n    //\r\n    // startDate and duration are specified in seconds\r\n    //\r\n    /* constructor (address payable _pot, uint256 _startDate, uint256 _duration) {\r\n        pot = _pot;\r\n        duration = _duration;\r\n        startDate = _startDate;\r\n        endDate = startDate + _duration;\r\n        \r\n        patientCount = 0;\r\n        treatmentAdministrationReportCount = 0;\r\n        statusReportCount = 0;\r\n        \r\n        // TODO:: deal with the logic here\r\n        active = true;\r\n    }*/\r\n\r\n\r\n    // temp constructor while developing. switch to real one when done!\r\n    constructor () {\r\n        pot = msg.sender;\r\n        duration = 60 * 60 * 24;\r\n        startDate = block.timestamp;\r\n        endDate = startDate + duration;\r\n        \r\n        patientCount = 0;\r\n        treatmentAdministrationReportCount = 0;\r\n        statusReportCount = 0;\r\n        \r\n        active = true;\r\n    }\r\n    \r\n    // helpers\r\n    \r\n    //\r\n    // returns a pseudorandom number\r\n    //\r\n    function _random(uint seed) private view returns (uint) {\r\n        return uint(keccak256(abi.encodePacked(block.difficulty, block.timestamp, msg.sender, seed)));\r\n    } \r\n    \r\n    //\r\n    // The first transaction at or after \r\n    // the end date will deactivate the contract and\r\n    // conclude the study. Ran at the end of all public \r\n    // calls to the contract\r\n    //\r\n    function _checkIfEnded () private {\r\n        if (block.timestamp > endDate) {\r\n            active = false;\r\n            _concludeStudy();\r\n        }\r\n    }\r\n    \r\n    // business logic\r\n    \r\n    //\r\n    // add a patient to the study\r\n    //\r\n    function registerPatient (address payable _address, string memory _data) public requireActive {\r\n        patientCount++;\r\n        patients[patientCount] = Patient(patientCount, _address, _assignToGroup(), _data, block.timestamp);\r\n    }\r\n    \r\n    // \r\n    // assign patient to one of two groups - treatment or control\r\n    //\r\n    function _assignToGroup () private returns (Group) {\r\n        uint seed = patientCount + treatmentAdministrationReportCount + statusReportCount;\r\n        uint randInt = _random(seed);\r\n        return randInt % 2 == 0 ? Group.Control : Group.Treatment;\r\n    }\r\n    \r\n    //\r\n    // obscure the data in such a way that no one can see which \r\n    // patient pertains to which group\r\n    //\r\n    // TODO:: find a solution for this. How can we blind the \r\n    // patient?\r\n    //\r\n    function _blind () private {}\r\n    \r\n    //\r\n    // order a treatment kit -- real or placebo -- \r\n    // based on the nature of the patient. pay out of the pot \r\n    //\r\n    function orderTreatmentKit () public requireActive {}\r\n    \r\n    //\r\n    // records administration of a treatment kit to a patient\r\n    //\r\n    function administerTreatment () public requireActive {}\r\n    \r\n    //\r\n    // records status of a patient following treatment administration\r\n    // part of continuous self-assesment\r\n    //\r\n    function reportStatus () public requireActive {}\r\n    \r\n    // \r\n    // fired at the end of the study (on or after endDate)\r\n    // \r\n    function _concludeStudy () private {}\r\n    \r\n    // \r\n    // reverse the blinding procedure\r\n    //\r\n    function _unblind () private {}\r\n}\r\n",
  "sourcePath": "D:/Sources/erko-eth-project/src/contracts/DoubleBlindStudy.sol",
  "compiler": {
    "name": "solc",
    "version": "0.7.6+commit.7338295f.Emscripten.clang"
  },
  "schemaVersion": "3.3.4",
  "updatedAt": "2021-03-11T19:41:37.102Z",
  "networkType": "ethereum",
  "devdoc": {
    "kind": "dev",
    "methods": {},
    "version": 1
  },
  "userdoc": {
    "kind": "user",
    "methods": {},
    "version": 1
  }
}