{
  "contractName": "DoubleBlindStudy",
  "abi": [
    {
      "inputs": [],
      "stateMutability": "nonpayable",
      "type": "constructor"
    },
    {
      "inputs": [],
      "name": "active",
      "outputs": [
        {
          "internalType": "bool",
          "name": "",
          "type": "bool"
        }
      ],
      "stateMutability": "view",
      "type": "function",
      "constant": true
    },
    {
      "inputs": [
        {
          "internalType": "address payable",
          "name": "_address",
          "type": "address"
        }
      ],
      "name": "isPatientEnrolled",
      "outputs": [
        {
          "internalType": "bytes32",
          "name": "",
          "type": "bytes32"
        }
      ],
      "stateMutability": "view",
      "type": "function",
      "constant": true
    },
    {
      "inputs": [
        {
          "internalType": "address payable",
          "name": "_address",
          "type": "address"
        }
      ],
      "name": "getPatientData",
      "outputs": [
        {
          "internalType": "uint256",
          "name": "",
          "type": "uint256"
        },
        {
          "internalType": "bytes32",
          "name": "",
          "type": "bytes32"
        },
        {
          "internalType": "string",
          "name": "",
          "type": "string"
        },
        {
          "internalType": "uint256",
          "name": "",
          "type": "uint256"
        }
      ],
      "stateMutability": "view",
      "type": "function",
      "constant": true
    },
    {
      "inputs": [
        {
          "internalType": "string",
          "name": "_data",
          "type": "string"
        }
      ],
      "name": "enroll",
      "outputs": [
        {
          "internalType": "bytes32",
          "name": "",
          "type": "bytes32"
        }
      ],
      "stateMutability": "nonpayable",
      "type": "function"
    },
    {
      "inputs": [],
      "name": "order",
      "outputs": [],
      "stateMutability": "nonpayable",
      "type": "function"
    },
    {
      "inputs": [
        {
          "internalType": "string",
          "name": "_data",
          "type": "string"
        }
      ],
      "name": "reportTreatmentAdministration",
      "outputs": [],
      "stateMutability": "nonpayable",
      "type": "function"
    },
    {
      "inputs": [
        {
          "internalType": "string",
          "name": "_data",
          "type": "string"
        }
      ],
      "name": "reportStatus",
      "outputs": [],
      "stateMutability": "nonpayable",
      "type": "function"
    }
  ],
  "bytecode": "0x608060405234801561001057600080fd5b50336000806101000a81548173ffffffffffffffffffffffffffffffffffffffff021916908373ffffffffffffffffffffffffffffffffffffffff160217905550620151806003819055506000429050806001819055506003548101600281905550600060048190555060006006819055506001600860006101000a81548160ff02191690831515021790555050610a80806100ad6000396000f3fe608060405234801561001057600080fd5b506004361061007d5760003560e01c8063604dfd3f1161005b578063604dfd3f1461022f57806367b09cdb14610287578063b2af8e9314610356578063bf15071d146104115761007d565b806302fb0c5e1461008257806309c48318146100a257806348e818521461015d575b600080fd5b61008a61041b565b60405180821515815260200191505060405180910390f35b61015b600480360360208110156100b857600080fd5b81019080803590602001906401000000008111156100d557600080fd5b8201836020820111156100e757600080fd5b8035906020019184600183028401116401000000008311171561010957600080fd5b91908080601f016020809104026020016040519081016040528093929190818152602001838380828437600081840152601f19601f82011690508083019250505050505050919291929050505061042e565b005b61019f6004803603602081101561017357600080fd5b81019080803573ffffffffffffffffffffffffffffffffffffffff169060200190929190505050610455565b6040518085815260200184815260200180602001838152602001828103825284818151815260200191508051906020019080838360005b838110156101f15780820151818401526020810190506101d6565b50505050905090810190601f16801561021e5780820380516001836020036101000a031916815260200191505b509550505050505060405180910390f35b6102716004803603602081101561024557600080fd5b81019080803573ffffffffffffffffffffffffffffffffffffffff1690602001909291905050506105ed565b6040518082815260200191505060405180910390f35b6103406004803603602081101561029d57600080fd5b81019080803590602001906401000000008111156102ba57600080fd5b8201836020820111156102cc57600080fd5b803590602001918460018302840111640100000000831117156102ee57600080fd5b91908080601f016020809104026020016040519081016040528093929190818152602001838380828437600081840152601f19601f82011690508083019250505050505050919291929050505061066b565b6040518082815260200191505060405180910390f35b61040f6004803603602081101561036c57600080fd5b810190808035906020019064010000000081111561038957600080fd5b82018360208201111561039b57600080fd5b803590602001918460018302840111640100000000831117156103bd57600080fd5b91908080601f016020809104026020016040519081016040528093929190818152602001838380828437600081840152601f19601f8201169050808301925050505050505091929192905050506107a6565b005b6104196107cd565b005b600860009054906101000a900460ff1681565b600860009054906101000a900460ff1661044757600080fd5b6104526001826107e8565b50565b60008060606000600860009054906101000a900460ff1661047557600080fd5b600085604051602001808273ffffffffffffffffffffffffffffffffffffffff1660601b81526014019150506040516020818303038152906040528051906020012090506000600560008381526020019081526020016000206040518060a001604052908160008201548152602001600182015481526020016002820160009054906101000a900460ff16600181111561050b57fe5b600181111561051657fe5b8152602001600382018054600181600116156101000203166002900480601f0160208091040260200160405190810160405280929190818152602001828054600181600116156101000203166002900480156105b35780601f10610588576101008083540402835291602001916105b3565b820191906000526020600020905b81548152906001019060200180831161059657829003601f168201915b5050505050815260200160048201548152505090508060000151816020015182606001518360800151955095509550955050509193509193565b6000600860009054906101000a900460ff1661060857600080fd5b600082604051602001808273ffffffffffffffffffffffffffffffffffffffff1660601b81526014019150506040516020818303038152906040528051906020012090506005600082815260200190815260200160002060010154915050919050565b6000600860009054906101000a900460ff1661068657600080fd5b6004600081548092919060010191905055506000339050600081604051602001808273ffffffffffffffffffffffffffffffffffffffff1660601b815260140191505060405160208183030381529060405280519060200120905060004290506040518060a0016040528060045481526020018381526020016107076108ff565b600181111561071257fe5b81526020018681526020018281525060056000848152602001908152602001600020600082015181600001556020820151816001015560408201518160020160006101000a81548160ff0219169083600181111561076c57fe5b0217905550606082015181600301908051906020019061078d92919061099f565b5060808201518160040155905050819350505050919050565b600860009054906101000a900460ff166107bf57600080fd5b6107ca6000826107e8565b50565b600860009054906101000a900460ff166107e657600080fd5b565b6006600081548092919060010191905055506000339050600081604051602001808273ffffffffffffffffffffffffffffffffffffffff1660601b815260140191505060405160208183030381529060405280519060200120905060004290506040518060a00160405280600654815260200186600181111561086757fe5b8152602001838152602001858152602001828152506007600060065481526020019081526020016000206000820151816000015560208201518160010160006101000a81548160ff021916908360018111156108bf57fe5b02179055506040820151816002015560608201518160030190805190602001906108ea92919061099f565b50608082015181600401559050505050505050565b60008060065460045401905060006109168261093b565b905060006002828161092457fe5b0614610931576000610934565b60015b9250505090565b600044423384604051602001808581526020018481526020018373ffffffffffffffffffffffffffffffffffffffff1660601b81526014018281526020019450505050506040516020818303038152906040528051906020012060001c9050919050565b828054600181600116156101000203166002900490600052602060002090601f0160209004810192826109d55760008555610a1c565b82601f106109ee57805160ff1916838001178555610a1c565b82800160010185558215610a1c579182015b82811115610a1b578251825591602001919060010190610a00565b5b509050610a299190610a2d565b5090565b5b80821115610a46576000816000905550600101610a2e565b509056fea264697066735822122012113f966cbe753cadc483ba762e3cff9c082f593a7611d2e52c39b555396e1b64736f6c63430007060033",
  "immutableReferences": {},
  "source": "pragma solidity ^0.7.4;\r\n\r\ncontract DoubleBlindStudy {\r\n    \r\n    address payable private pot;\r\n    uint private startDate;\r\n    uint private endDate;\r\n    uint private duration;\r\n    \r\n    uint private patientCount;\r\n    mapping (bytes32 => Patient) private patients;\r\n    \r\n    uint private reportCount;\r\n    mapping (uint => Report) private reports;\r\n    \r\n    bool public active;\r\n    \r\n    modifier requireActive {\r\n        require(active);\r\n        _;\r\n    }\r\n    \r\n    enum Group {\r\n        Treatment,\r\n        Control\r\n    }\r\n    \r\n    enum ReportType {\r\n        TreatmentAdministration,\r\n        Status\r\n    }\r\n\r\n    struct Patient {\r\n        uint _id;\r\n        bytes32 _hash;\r\n        Group _group;\r\n        string _data;\r\n        uint _enrolledOn;\r\n    }\r\n    \r\n    struct Order {\r\n        uint _id;\r\n        bytes32 _patientId;\r\n    }\r\n    \r\n    struct Report {\r\n        uint _id;\r\n        ReportType _reportType;\r\n        bytes32 _patientId;\r\n        string _data;\r\n        uint _reportedOn;\r\n    }\r\n    \r\n    //\r\n    // the deployer of the contract is the study monitor\r\n    // \r\n    // they should provide address of a wallet with sufficient \r\n    // funds to finance expenses related to the study, called \r\n    // the pot\r\n    // \r\n    // for miscellaneous transactions the patients are\r\n    // expected to pay by themselves but this is mitigated\r\n    // by the pot being redistributed at the end of the study \r\n    // to all participants\r\n    //\r\n    // startDate and duration are specified in seconds\r\n    //\r\n    /*constructor (address payable _pot, uint256 _startDate, uint256 _duration) {\r\n        pot = _pot;\r\n        duration = _duration;\r\n        startDate = _startDate;\r\n        endDate = startDate + _duration;\r\n        \r\n        patientCount = 0;\r\n        reportCount = 0;\r\n        \r\n        // TODO:: deal with the logic here\r\n        active = true;\r\n    }*/\r\n\r\n    //\r\n    // TODO:: remove after debugging\r\n    //\r\n    constructor () {\r\n        pot = msg.sender;\r\n        duration = 60 * 60 * 24;\r\n        uint ts = block.timestamp;\r\n        startDate = ts;\r\n        endDate = ts + duration;\r\n        \r\n        patientCount = 0;\r\n        reportCount = 0;\r\n\r\n        active = true;\r\n    }\r\n    \r\n    // helpers\r\n\r\n    //\r\n    // returns a pseudorandom number\r\n    //\r\n    function _random(uint seed) private view returns (uint) {\r\n        return uint(keccak256(abi.encodePacked(block.difficulty, block.timestamp, msg.sender, seed)));\r\n    } \r\n    \r\n    //\r\n    // The first transaction at or after \r\n    // the end date will deactivate the contract and\r\n    // conclude the study. Ran at the end of all public \r\n    // calls to the contract\r\n    //\r\n    function _checkIfEnded () private {\r\n        if (block.timestamp > endDate) {\r\n            active = false;\r\n            _concludeStudy();\r\n        }\r\n    }\r\n\r\n    // business logic\r\n    \r\n    // \r\n    // Returns whether the specified patient is enrolled\r\n    //\r\n    function isPatientEnrolled (address payable _address) public view requireActive returns (bytes32) {\r\n        bytes32 _hash = keccak256(abi.encodePacked(_address));\r\n        return patients[_hash]._hash;\r\n    }\r\n    \r\n    //\r\n    // Returns patient data\r\n    //\r\n    function getPatientData (address payable _address) public view requireActive returns (uint, bytes32, string memory, uint) {\r\n        bytes32 _hash = keccak256(abi.encodePacked(_address));\r\n        Patient memory _patient = patients[_hash];\r\n        return (_patient._id, _patient._hash, _patient._data, _patient._enrolledOn);\r\n    }\r\n\r\n    //\r\n    // add a patient to the study\r\n    //\r\n    function enroll (string memory _data) public requireActive returns (bytes32) {\r\n        patientCount++;\r\n        address payable _address = msg.sender;\r\n        bytes32 _hash = keccak256(abi.encodePacked(_address));\r\n        uint ts = block.timestamp;\r\n        patients[_hash] = Patient(patientCount, _hash, _assignToGroup(), _data, ts);\r\n        return _hash;\r\n    }\r\n    \r\n    // \r\n    // assign patient to one of two groups - treatment or control\r\n    //\r\n    function _assignToGroup () private view returns (Group) {\r\n        uint seed = patientCount + reportCount;\r\n        uint randInt = _random(seed);\r\n        return randInt % 2 == 0 ? Group.Control : Group.Treatment;\r\n    }\r\n    \r\n    //\r\n    // obscure the data in such a way that no one can see which \r\n    // patient pertains to which group\r\n    //\r\n    // TODO:: find a solution for this. How can we blind the \r\n    // patient?\r\n    //\r\n    function _blind () private {}\r\n    \r\n    //\r\n    // order a treatment kit -- real or placebo -- \r\n    // based on the nature of the patient. pay out of the pot?\r\n    //\r\n    function order () public requireActive {}\r\n    \r\n    // \r\n    // Add a report of specified type and with specified data\r\n    //\r\n    function _addReport(ReportType _type, string memory _data) private {\r\n        reportCount++;\r\n        address payable _address = msg.sender;\r\n        bytes32 _hash = keccak256(abi.encodePacked(_address));\r\n        uint ts = block.timestamp;\r\n        reports[reportCount] = Report(reportCount, _type, _hash, _data, ts);\r\n    }\r\n\r\n    //\r\n    // records administration of a treatment kit to a patient\r\n    //\r\n    function reportTreatmentAdministration (string memory _data) public requireActive {\r\n        _addReport(ReportType.TreatmentAdministration, _data);\r\n    }\r\n    \r\n    //\r\n    // records status of a patient following treatment administration\r\n    // part of continuous self-assesment\r\n    //\r\n    function reportStatus (string memory _data) public requireActive {\r\n        _addReport(ReportType.Status, _data);\r\n    }\r\n    \r\n    // \r\n    // fired at the end of the study (on or after endDate)\r\n    // \r\n    function _concludeStudy () private {}\r\n    \r\n    // \r\n    // reverse the blinding procedure\r\n    //\r\n    function _unblind () private {}\r\n}\r\n",
  "sourcePath": "D:/Sources/erko-eth-project/src/contracts/DoubleBlindStudy.sol",
  "compiler": {
    "name": "solc",
    "version": "0.7.6+commit.7338295f.Emscripten.clang"
  },
  "schemaVersion": "3.3.4",
  "updatedAt": "2021-03-21T14:44:27.743Z",
  "networkType": "ethereum",
  "devdoc": {
    "kind": "dev",
    "methods": {},
    "version": 1
  },
  "userdoc": {
    "kind": "user",
    "methods": {},
    "version": 1
  }
}