{
  "contractName": "DoubleBlindStudy",
  "abi": [
    {
      "inputs": [
        {
          "internalType": "address payable",
          "name": "_pot",
          "type": "address"
        },
        {
          "internalType": "uint256",
          "name": "_startDate",
          "type": "uint256"
        },
        {
          "internalType": "uint256",
          "name": "_duration",
          "type": "uint256"
        }
      ],
      "stateMutability": "nonpayable",
      "type": "constructor"
    },
    {
      "inputs": [],
      "name": "active",
      "outputs": [
        {
          "internalType": "bool",
          "name": "",
          "type": "bool"
        }
      ],
      "stateMutability": "view",
      "type": "function",
      "constant": true
    },
    {
      "inputs": [
        {
          "internalType": "address payable",
          "name": "_address",
          "type": "address"
        }
      ],
      "name": "isPatientEnrolled",
      "outputs": [
        {
          "internalType": "bytes32",
          "name": "",
          "type": "bytes32"
        }
      ],
      "stateMutability": "view",
      "type": "function",
      "constant": true
    },
    {
      "inputs": [
        {
          "internalType": "address payable",
          "name": "_address",
          "type": "address"
        }
      ],
      "name": "getPatientData",
      "outputs": [
        {
          "internalType": "uint256",
          "name": "",
          "type": "uint256"
        },
        {
          "internalType": "bytes32",
          "name": "",
          "type": "bytes32"
        },
        {
          "internalType": "bytes32",
          "name": "",
          "type": "bytes32"
        },
        {
          "internalType": "string",
          "name": "",
          "type": "string"
        },
        {
          "internalType": "uint256",
          "name": "",
          "type": "uint256"
        }
      ],
      "stateMutability": "view",
      "type": "function",
      "constant": true
    },
    {
      "inputs": [
        {
          "internalType": "bytes32",
          "name": "_mappingId",
          "type": "bytes32"
        },
        {
          "internalType": "string",
          "name": "_data",
          "type": "string"
        }
      ],
      "name": "enroll",
      "outputs": [
        {
          "internalType": "bytes32",
          "name": "",
          "type": "bytes32"
        }
      ],
      "stateMutability": "nonpayable",
      "type": "function"
    },
    {
      "inputs": [
        {
          "internalType": "string",
          "name": "voucher",
          "type": "string"
        }
      ],
      "name": "order",
      "outputs": [],
      "stateMutability": "nonpayable",
      "type": "function"
    },
    {
      "inputs": [],
      "name": "getCurrentOrder",
      "outputs": [
        {
          "internalType": "uint256",
          "name": "",
          "type": "uint256"
        },
        {
          "internalType": "bytes32",
          "name": "",
          "type": "bytes32"
        },
        {
          "internalType": "string",
          "name": "",
          "type": "string"
        },
        {
          "internalType": "uint256",
          "name": "",
          "type": "uint256"
        }
      ],
      "stateMutability": "view",
      "type": "function",
      "constant": true
    },
    {
      "inputs": [
        {
          "internalType": "string",
          "name": "_data",
          "type": "string"
        }
      ],
      "name": "reportTreatmentAdministration",
      "outputs": [],
      "stateMutability": "nonpayable",
      "type": "function"
    },
    {
      "inputs": [
        {
          "internalType": "string",
          "name": "_data",
          "type": "string"
        }
      ],
      "name": "reportStatus",
      "outputs": [],
      "stateMutability": "nonpayable",
      "type": "function"
    }
  ],
  "bytecode": "0x608060405234801561001057600080fd5b50604051610d90380380610d908339818101604052606081101561003357600080fd5b81019080805190602001909291908051906020019092919080519060200190929190505050826000806101000a81548173ffffffffffffffffffffffffffffffffffffffff021916908373ffffffffffffffffffffffffffffffffffffffff160217905550806003819055508160018190555080600154016002819055506000600481905550600060098190555060006006819055506001600b60006101000a81548160ff021916908315150217905550505050610c9a806100f66000396000f3fe608060405234801561001057600080fd5b50600436106100885760003560e01c8063604dfd3f1161005b578063604dfd3f146102d9578063b2af8e9314610331578063bcc3b410146103ec578063f87f4a0a146104c557610088565b806302fb0c5e1461008d57806309c48318146100ad578063149cf4b71461016857806348e8185214610200575b600080fd5b610095610580565b60405180821515815260200191505060405180910390f35b610166600480360360208110156100c357600080fd5b81019080803590602001906401000000008111156100e057600080fd5b8201836020820111156100f257600080fd5b8035906020019184600183028401116401000000008311171561011457600080fd5b91908080601f016020809104026020016040519081016040528093929190818152602001838380828437600081840152601f19601f820116905080830192505050505050509192919290505050610593565b005b6101706105ba565b6040518085815260200184815260200180602001838152602001828103825284818151815260200191508051906020019080838360005b838110156101c25780820151818401526020810190506101a7565b50505050905090810190601f1680156101ef5780820380516001836020036101000a031916815260200191505b509550505050505060405180910390f35b6102426004803603602081101561021657600080fd5b81019080803573ffffffffffffffffffffffffffffffffffffffff169060200190929190505050610706565b6040518086815260200185815260200184815260200180602001838152602001828103825284818151815260200191508051906020019080838360005b8381101561029a57808201518184015260208101905061027f565b50505050905090810190601f1680156102c75780820380516001836020036101000a031916815260200191505b50965050505050505060405180910390f35b61031b600480360360208110156102ef57600080fd5b81019080803573ffffffffffffffffffffffffffffffffffffffff16906020019092919050505061084f565b6040518082815260200191505060405180910390f35b6103ea6004803603602081101561034757600080fd5b810190808035906020019064010000000081111561036457600080fd5b82018360208201111561037657600080fd5b8035906020019184600183028401116401000000008311171561039857600080fd5b91908080601f016020809104026020016040519081016040528093929190818152602001838380828437600081840152601f19601f820116905080830192505050505050509192919290505050610896565b005b6104af6004803603604081101561040257600080fd5b81019080803590602001909291908035906020019064010000000081111561042957600080fd5b82018360208201111561043b57600080fd5b8035906020019184600183028401116401000000008311171561045d57600080fd5b91908080601f016020809104026020016040519081016040528093929190818152602001838380828437600081840152601f19601f8201169050808301925050505050505091929192905050506108bd565b6040518082815260200191505060405180910390f35b61057e600480360360208110156104db57600080fd5b81019080803590602001906401000000008111156104f857600080fd5b82018360208201111561050a57600080fd5b8035906020019184600183028401116401000000008311171561052c57600080fd5b91908080601f016020809104026020016040519081016040528093929190818152602001838380828437600081840152601f19601f82011690508083019250505050505050919291929050505061098b565b005b600b60009054906101000a900460ff1681565b600b60009054906101000a900460ff166105ac57600080fd5b6105b7600182610a5d565b50565b60008060606000600b60009054906101000a900460ff166105da57600080fd5b60006105e533610b70565b90506000600860008381526020019081526020016000205490506000600760008381526020019081526020016000206040518060800160405290816000820154815260200160018201548152602001600282018054600181600116156101000203166002900480601f0160208091040260200160405190810160405280929190818152602001828054600181600116156101000203166002900480156106cc5780601f106106a1576101008083540402835291602001916106cc565b820191906000526020600020905b8154815290600101906020018083116106af57829003601f168201915b5050505050815260200160038201548152505090508060000151816020015182604001518360600151965096509650965050505090919293565b600080600060606000600b60009054906101000a900460ff1661072857600080fd5b600061073387610b70565b90506000600560008381526020019081526020016000206040518060a0016040529081600082015481526020016001820154815260200160028201548152602001600382018054600181600116156101000203166002900480601f01602080910402602001604051908101604052809291908181526020018280546001816001161561010002031660029004801561080c5780601f106107e15761010080835404028352916020019161080c565b820191906000526020600020905b8154815290600101906020018083116107ef57829003601f168201915b5050505050815260200160048201548152505090508060000151816020015182604001518360600151846080015196509650965096509650505091939590929450565b6000600b60009054906101000a900460ff1661086a57600080fd5b600061087583610b70565b90506005600082815260200190815260200160002060010154915050919050565b600b60009054906101000a900460ff166108af57600080fd5b6108ba600082610a5d565b50565b6000600b60009054906101000a900460ff166108d857600080fd5b60046000815480929190600101919050555060006108f533610b70565b905060004290506040518060a00160405280600454815260200183815260200186815260200185815260200182815250600560008481526020019081526020016000206000820151816000015560208201518160010155604082015181600201556060820151816003019080519060200190610972929190610bb9565b5060808201518160040155905050819250505092915050565b600b60009054906101000a900460ff166109a457600080fd5b60066000815480929190600101919050555060006109c133610b70565b90506000429050604051806080016040528060065481526020018381526020018481526020018281525060076000600654815260200190815260200160002060008201518160000155602082015181600101556040820151816002019080519060200190610a30929190610bb9565b50606082015181600301559050506006546008600084815260200190815260200160002081905550505050565b6009600081548092919060010191905055506000610a7a33610b70565b905060004290506040518060a001604052806009548152602001856001811115610aa057fe5b815260200183815260200184815260200182815250600a600060095481526020019081526020016000206000820151816000015560208201518160010160006101000a81548160ff02191690836001811115610af857fe5b0217905550604082015181600201556060820151816003019080519060200190610b23929190610bb9565b5060808201518160040155905050836001811115610b3d57fe5b60006001811115610b4a57fe5b1415610b6a57600060086000848152602001908152602001600020819055505b50505050565b600081604051602001808273ffffffffffffffffffffffffffffffffffffffff1660601b8152601401915050604051602081830303815290604052805190602001209050919050565b828054600181600116156101000203166002900490600052602060002090601f016020900481019282610bef5760008555610c36565b82601f10610c0857805160ff1916838001178555610c36565b82800160010185558215610c36579182015b82811115610c35578251825591602001919060010190610c1a565b5b509050610c439190610c47565b5090565b5b80821115610c60576000816000905550600101610c48565b509056fea264697066735822122074ad377efa80d24797a2e8eda14e79b9fb59c7c8aae793a0f4159f4bfaf8015964736f6c63430007060033",
  "immutableReferences": {},
  "source": "pragma solidity ^0.7.4;\r\n\r\ncontract DoubleBlindStudy {\r\n    address payable private pot;\r\n    uint256 private startDate;\r\n    uint256 private endDate;\r\n    uint256 private duration;\r\n\r\n    uint256 private patientCount;\r\n    mapping(bytes32 => Patient) private patients;\r\n\r\n    uint256 private orderCount;\r\n    mapping(uint256 => Order) private orders;\r\n    mapping(bytes32 => uint256) private patientOrder;\r\n\r\n    uint256 private reportCount;\r\n    mapping(uint256 => Report) private reports;\r\n\r\n    bool public active;\r\n\r\n    modifier requireActive {\r\n        require(active);\r\n        _;\r\n    }\r\n\r\n    enum ReportType {TreatmentAdministration, Status}\r\n\r\n    struct Patient {\r\n        uint256 _id;\r\n        bytes32 _patientId;\r\n        bytes32 _mappingId;\r\n        string _data;\r\n        uint256 _enrolledOn;\r\n    }\r\n\r\n    struct Order {\r\n        uint256 _id;\r\n        bytes32 _patientId;\r\n        string _voucher;\r\n        uint256 _orderedOn;\r\n    }\r\n\r\n    struct Report {\r\n        uint256 _id;\r\n        ReportType _reportType;\r\n        bytes32 _patientId;\r\n        string _data;\r\n        uint256 _reportedOn;\r\n    }\r\n\r\n    /*\r\n      the deployer of the contract is the study monitor\r\n      \r\n      they should provide address of a wallet with sufficient \r\n      funds to finance expenses related to the study, called \r\n      the pot\r\n      \r\n      for miscellaneous transactions the patients are\r\n      expected to pay by themselves but this is mitigated\r\n      by the pot being redistributed at the end of the study \r\n      to all participants\r\n      \r\n      startDate and duration are specified in seconds\r\n    */\r\n    constructor(\r\n        address payable _pot,\r\n        uint256 _startDate,\r\n        uint256 _duration\r\n    ) {\r\n        pot = _pot;\r\n        duration = _duration;\r\n        startDate = _startDate;\r\n        endDate = startDate + _duration;\r\n\r\n        patientCount = 0;\r\n        reportCount = 0;\r\n        orderCount = 0;\r\n\r\n        // TODO:: deal with the logic here\r\n        active = true;\r\n    }\r\n\r\n    // helpers\r\n\r\n    /*\r\n      The first transaction at or after\r\n      the end date will deactivate the contract and\r\n      conclude the study. Ran at the end of all public\r\n      calls to the contract\r\n    */\r\n    function _checkIfEnded() private {\r\n        if (block.timestamp > endDate) {\r\n            active = false;\r\n            _concludeStudy();\r\n        }\r\n    }\r\n\r\n    function _getHash(address payable _address) private view returns (bytes32) {\r\n        return keccak256(abi.encodePacked(_address));\r\n    }\r\n\r\n    // business logic\r\n\r\n    /*\r\n      Returns whether the specified patient is enrolled\r\n    */\r\n    function isPatientEnrolled(address payable _address)\r\n        public\r\n        view\r\n        requireActive\r\n        returns (bytes32)\r\n    {\r\n        bytes32 patientId = _getHash(_address);\r\n        return patients[patientId]._patientId;\r\n    }\r\n\r\n    /*\r\n      Returns patient data\r\n    */\r\n    function getPatientData(address payable _address)\r\n        public\r\n        view\r\n        requireActive\r\n        returns (\r\n            uint256,\r\n            bytes32,\r\n            bytes32,\r\n            string memory,\r\n            uint256\r\n        )\r\n    {\r\n        bytes32 patientId = _getHash(_address);\r\n        Patient memory patient = patients[patientId];\r\n        return (\r\n            patient._id,\r\n            patient._patientId,\r\n            patient._mappingId,\r\n            patient._data,\r\n            patient._enrolledOn\r\n        );\r\n    }\r\n\r\n    /*\r\n      add a patient to the study\r\n    */\r\n    function enroll(bytes32 _mappingId, string memory _data)\r\n        public\r\n        requireActive\r\n        returns (bytes32)\r\n    {\r\n        patientCount++;\r\n        bytes32 patientId = _getHash(msg.sender);\r\n        uint256 ts = block.timestamp;\r\n        patients[patientId] = Patient(\r\n            patientCount,\r\n            patientId,\r\n            _mappingId,\r\n            _data,\r\n            ts\r\n        );\r\n        return patientId;\r\n    }\r\n\r\n    /*\r\n      obscure the data in such a way that no one can see which\r\n      patient pertains to which group\r\n     \r\n      TODO:: find a solution for this. How can we blind the\r\n      patient?\r\n    */\r\n    function _blind() private {}\r\n\r\n    /*\r\n      order a treatment kit -- real or placebo --\r\n      based on the nature of the patient. pay out of the pot?\r\n    */\r\n    function order(string memory voucher) public requireActive {\r\n        orderCount++;\r\n        bytes32 patientId = _getHash(msg.sender);\r\n        uint256 ts = block.timestamp;\r\n        orders[orderCount] = Order(orderCount, patientId, voucher, ts);\r\n        patientOrder[patientId] = orderCount;\r\n    }\r\n\r\n    function getCurrentOrder()\r\n        public\r\n        view\r\n        requireActive\r\n        returns (\r\n            uint256,\r\n            bytes32,\r\n            string memory,\r\n            uint256\r\n        )\r\n    {\r\n        bytes32 patientId = _getHash(msg.sender);\r\n        uint256 orderId = patientOrder[patientId];\r\n        Order memory _order = orders[orderId];\r\n        return (\r\n            _order._id,\r\n            _order._patientId,\r\n            _order._voucher,\r\n            _order._orderedOn\r\n        );\r\n    }\r\n\r\n    /*\r\n      Add a report of specified type and with specified data\r\n    */\r\n    function _addReport(ReportType _type, string memory _data) private {\r\n        reportCount++;\r\n        bytes32 patientId = _getHash(msg.sender);\r\n        uint256 ts = block.timestamp;\r\n        reports[reportCount] = Report(reportCount, _type, patientId, _data, ts);\r\n        if (ReportType.TreatmentAdministration == _type) {\r\n            patientOrder[patientId] = 0;\r\n        }\r\n    }\r\n\r\n    /*\r\n      records administration of a treatment kit to a patient\r\n    */\r\n    function reportTreatmentAdministration(string memory _data)\r\n        public\r\n        requireActive\r\n    {\r\n        _addReport(ReportType.TreatmentAdministration, _data);\r\n    }\r\n\r\n    /*\r\n      records status of a patient following treatment administration\r\n      part of continuous self-assesment\r\n    */\r\n    function reportStatus(string memory _data) public requireActive {\r\n        _addReport(ReportType.Status, _data);\r\n    }\r\n\r\n    /*\r\n     fired at the end of the study (on or after endDate)\r\n    */\r\n    function _concludeStudy() private {}\r\n\r\n    /*\r\n      reverse the blinding procedure\r\n    */\r\n    function _unblind() private {}\r\n}\r\n",
  "sourcePath": "D:/Sources/erko-eth-project/src/contracts/DoubleBlindStudy.sol",
  "compiler": {
    "name": "solc",
    "version": "0.7.6+commit.7338295f.Emscripten.clang"
  },
  "schemaVersion": "3.3.4",
  "updatedAt": "2021-04-02T08:13:48.827Z",
  "networkType": "ethereum",
  "devdoc": {
    "kind": "dev",
    "methods": {},
    "version": 1
  },
  "userdoc": {
    "kind": "user",
    "methods": {},
    "version": 1
  }
}