{
  "contractName": "DoubleBlindStudy",
  "abi": [
    {
      "inputs": [],
      "stateMutability": "nonpayable",
      "type": "constructor"
    },
    {
      "inputs": [],
      "name": "active",
      "outputs": [
        {
          "internalType": "bool",
          "name": "",
          "type": "bool"
        }
      ],
      "stateMutability": "view",
      "type": "function",
      "constant": true
    },
    {
      "inputs": [
        {
          "internalType": "address payable",
          "name": "_address",
          "type": "address"
        }
      ],
      "name": "isPatientEnrolled",
      "outputs": [
        {
          "internalType": "bytes32",
          "name": "",
          "type": "bytes32"
        }
      ],
      "stateMutability": "view",
      "type": "function",
      "constant": true
    },
    {
      "inputs": [
        {
          "internalType": "string",
          "name": "_data",
          "type": "string"
        }
      ],
      "name": "enroll",
      "outputs": [
        {
          "internalType": "bytes32",
          "name": "",
          "type": "bytes32"
        }
      ],
      "stateMutability": "nonpayable",
      "type": "function"
    },
    {
      "inputs": [],
      "name": "order",
      "outputs": [],
      "stateMutability": "nonpayable",
      "type": "function"
    },
    {
      "inputs": [],
      "name": "reportTreatmentAdministration",
      "outputs": [],
      "stateMutability": "nonpayable",
      "type": "function"
    },
    {
      "inputs": [],
      "name": "reportStatus",
      "outputs": [],
      "stateMutability": "nonpayable",
      "type": "function"
    }
  ],
  "bytecode": "0x608060405234801561001057600080fd5b50336000806101000a81548173ffffffffffffffffffffffffffffffffffffffff021916908373ffffffffffffffffffffffffffffffffffffffff1602179055506201518060038190555060004290508060018190555060035481016002819055506000600481905550600060068190555060006008819055506001600a60006101000a81548160ff0219169083151502179055505061056e806100b56000396000f3fe608060405234801561001057600080fd5b50600436106100625760003560e01c806302fb0c5e146100675780634637050114610087578063604dfd3f1461009157806367b09cdb146100e9578063bf15071d146101b8578063cf783348146101c2575b600080fd5b61006f6101cc565b60405180821515815260200191505060405180910390f35b61008f6101df565b005b6100d3600480360360208110156100a757600080fd5b81019080803573ffffffffffffffffffffffffffffffffffffffff1690602001909291905050506101fa565b6040518082815260200191505060405180910390f35b6101a2600480360360208110156100ff57600080fd5b810190808035906020019064010000000081111561011c57600080fd5b82018360208201111561012e57600080fd5b8035906020019184600183028401116401000000008311171561015057600080fd5b91908080601f016020809104026020016040519081016040528093929190818152602001838380828437600081840152601f19601f820116905080830192505050505050509192919290505050610278565b6040518082815260200191505060405180910390f35b6101c06103b3565b005b6101ca6103ce565b005b600a60009054906101000a900460ff1681565b600a60009054906101000a900460ff166101f857600080fd5b565b6000600a60009054906101000a900460ff1661021557600080fd5b600082604051602001808273ffffffffffffffffffffffffffffffffffffffff1660601b81526014019150506040516020818303038152906040528051906020012090506005600082815260200190815260200160002060010154915050919050565b6000600a60009054906101000a900460ff1661029357600080fd5b6004600081548092919060010191905055506000339050600081604051602001808273ffffffffffffffffffffffffffffffffffffffff1660601b815260140191505060405160208183030381529060405280519060200120905060004290506040518060a0016040528060045481526020018381526020016103146103e9565b600181111561031f57fe5b81526020018681526020018281525060056000848152602001908152602001600020600082015181600001556020820151816001015560408201518160020160006101000a81548160ff0219169083600181111561037957fe5b0217905550606082015181600301908051906020019061039a92919061048d565b5060808201518160040155905050819350505050919050565b600a60009054906101000a900460ff166103cc57600080fd5b565b600a60009054906101000a900460ff166103e757600080fd5b565b60008060085460065460045401019050600061040482610429565b905060006002828161041257fe5b061461041f576000610422565b60015b9250505090565b600044423384604051602001808581526020018481526020018373ffffffffffffffffffffffffffffffffffffffff1660601b81526014018281526020019450505050506040516020818303038152906040528051906020012060001c9050919050565b828054600181600116156101000203166002900490600052602060002090601f0160209004810192826104c3576000855561050a565b82601f106104dc57805160ff191683800117855561050a565b8280016001018555821561050a579182015b828111156105095782518255916020019190600101906104ee565b5b509050610517919061051b565b5090565b5b8082111561053457600081600090555060010161051c565b509056fea26469706673582212206893c61606b780886dfb9212f338ea2e1b6a939303cecc7fd10d126f5b0ca5c564736f6c63430007060033",
  "immutableReferences": {},
  "source": "pragma solidity ^0.7.4;\r\n\r\ncontract DoubleBlindStudy {\r\n    \r\n    address payable private pot;\r\n    uint private startDate;\r\n    uint private endDate;\r\n    uint private duration;\r\n    \r\n    uint private patientCount;\r\n    mapping (bytes32 => Patient) private patients;\r\n    \r\n    uint private treatmentAdministrationReportCount;\r\n    mapping (uint => TreatmentAdministrationReport) private treatmentAdministrationReports;\r\n    \r\n    uint private statusReportCount;\r\n    mapping (uint => StatusReport) private statusReports;\r\n    \r\n    bool public active;\r\n    \r\n    modifier requireActive {\r\n        require(active);\r\n        _;\r\n    }\r\n    \r\n    enum Group {\r\n        Treatment,\r\n        Control\r\n    }\r\n    \r\n    struct Patient {\r\n        uint _id;\r\n        bytes32 _hash;\r\n        Group _group;\r\n        string _data;\r\n        uint _registeredOn;\r\n    }\r\n    \r\n    struct TreatmentAdministrationReport {\r\n        uint _patientId;\r\n        string _data;\r\n        uint _administeredOn;\r\n    }    \r\n    \r\n    struct StatusReport {\r\n        uint _patientId;\r\n        string _data;\r\n        uint _reportedOn;\r\n    }\r\n    \r\n    //\r\n    // the deployer of the contract is the study monitor\r\n    // \r\n    // they should provide address of a wallet with sufficient \r\n    // funds to finance expenses related to the study, called \r\n    // the pot\r\n    // \r\n    // for miscellaneous transactions the patients are\r\n    // expected to pay by themselves but this is mitigated\r\n    // by the pot being redistributed at the end of the study \r\n    // to all participants\r\n    //\r\n    // startDate and duration are specified in seconds\r\n    //\r\n    /*constructor (address payable _pot, uint256 _startDate, uint256 _duration) {\r\n        pot = _pot;\r\n        duration = _duration;\r\n        startDate = _startDate;\r\n        endDate = startDate + _duration;\r\n        \r\n        patientCount = 0;\r\n        treatmentAdministrationReportCount = 0;\r\n        statusReportCount = 0;\r\n        \r\n        // TODO:: deal with the logic here\r\n        active = true;\r\n    }*/\r\n\r\n    //\r\n    // TODO:: remove after debugging\r\n    //\r\n    constructor () {\r\n        pot = msg.sender;\r\n        duration = 60 * 60 * 24;\r\n        uint ts = block.timestamp;\r\n        startDate = ts;\r\n        endDate = ts + duration;\r\n        \r\n        patientCount = 0;\r\n        treatmentAdministrationReportCount = 0;\r\n        statusReportCount = 0;\r\n\r\n        active = true;\r\n    }\r\n    \r\n    // helpers\r\n\r\n    //\r\n    // returns a pseudorandom number\r\n    //\r\n    function _random(uint seed) private view returns (uint) {\r\n        return uint(keccak256(abi.encodePacked(block.difficulty, block.timestamp, msg.sender, seed)));\r\n    } \r\n    \r\n    //\r\n    // The first transaction at or after \r\n    // the end date will deactivate the contract and\r\n    // conclude the study. Ran at the end of all public \r\n    // calls to the contract\r\n    //\r\n    function _checkIfEnded () private {\r\n        if (block.timestamp > endDate) {\r\n            active = false;\r\n            _concludeStudy();\r\n        }\r\n    }\r\n    \r\n    // business logic\r\n    \r\n    function isPatientEnrolled (address payable _address) public view requireActive returns (bytes32) {\r\n        bytes32 _hash = keccak256(abi.encodePacked(_address));\r\n        return patients[_hash]._hash;\r\n    }\r\n    \r\n    //\r\n    // add a patient to the study\r\n    //\r\n    function enroll (string memory _data) public requireActive returns (bytes32) {\r\n        patientCount++;\r\n        address payable _address = msg.sender;\r\n        bytes32 _hash = keccak256(abi.encodePacked(_address));\r\n        uint ts = block.timestamp;\r\n        patients[_hash] = Patient(patientCount, _hash, _assignToGroup(), _data, ts);\r\n        return _hash;\r\n    }\r\n    \r\n    // \r\n    // assign patient to one of two groups - treatment or control\r\n    //\r\n    function _assignToGroup () private view returns (Group) {\r\n        uint seed = patientCount + treatmentAdministrationReportCount + statusReportCount;\r\n        uint randInt = _random(seed);\r\n        return randInt % 2 == 0 ? Group.Control : Group.Treatment;\r\n    }\r\n    \r\n    //\r\n    // obscure the data in such a way that no one can see which \r\n    // patient pertains to which group\r\n    //\r\n    // TODO:: find a solution for this. How can we blind the \r\n    // patient?\r\n    //\r\n    function _blind () private {}\r\n    \r\n    //\r\n    // order a treatment kit -- real or placebo -- \r\n    // based on the nature of the patient. pay out of the pot \r\n    //\r\n    function order () public requireActive {}\r\n    \r\n    //\r\n    // records administration of a treatment kit to a patient\r\n    //\r\n    function reportTreatmentAdministration () public requireActive {}\r\n    \r\n    //\r\n    // records status of a patient following treatment administration\r\n    // part of continuous self-assesment\r\n    //\r\n    function reportStatus () public requireActive {}\r\n    \r\n    // \r\n    // fired at the end of the study (on or after endDate)\r\n    // \r\n    function _concludeStudy () private {}\r\n    \r\n    // \r\n    // reverse the blinding procedure\r\n    //\r\n    function _unblind () private {}\r\n}\r\n",
  "sourcePath": "D:/Sources/erko-eth-project/src/contracts/DoubleBlindStudy.sol",
  "compiler": {
    "name": "solc",
    "version": "0.7.6+commit.7338295f.Emscripten.clang"
  },
  "schemaVersion": "3.3.4",
  "updatedAt": "2021-03-15T19:45:14.282Z",
  "networkType": "ethereum",
  "devdoc": {
    "kind": "dev",
    "methods": {},
    "version": 1
  },
  "userdoc": {
    "kind": "user",
    "methods": {},
    "version": 1
  }
}